:020000040800F2
:10000000700B0020D5010008E9080008D10700089E
:10001000E508000831050008A312000800000000F0
:10002000000000000000000000000000090F0008B0
:100030003505000800000000110E00081D10000822
:10004000EF010008EF010008EF010008EF010008D0
:10005000EF010008EF010008EF010008EF010008C0
:10006000EF010008EF010008EF010008EF010008B0
:10007000EF010008EF010008EF010008EF010008A0
:10008000EF010008EF010008EF010008EF01000890
:10009000EF010008EF010008EF010008EF01000880
:1000A000EF010008EF010008EF010008EF01000870
:1000B000EF010008EF010008EF010008EF01000860
:1000C000EF010008EF010008EF010008EF01000850
:1000D000EF01000881100008EF010008EF0100089F
:1000E000EF010008EF010008EF010008EF01000830
:1000F000EF010008EF010008EF010008EF01000820
:10010000EF010008EF010008EF010008EF0100080F
:10011000EF010008EF010008EF010008EF010008FF
:10012000EF010008EF010008EF010008EF010008EF
:1001300000F002F800F03FF80AA090E8000C8244BA
:100140008344AAF10107DA4501D100F034F8AFF297
:10015000090EBAE80F0013F0010F18BFFB1A43F0A5
:10016000010318471831000038310000103A24BF4D
:1001700078C878C1FAD8520724BF30C830C144BF0C
:1001800004680C607047000000230024002500264E
:10019000103A28BF78C1FBD8520728BF30C148BFEA
:1001A0000B607047642900F04380002070471FB542
:1001B0001FBD10B510BD00F08DF91146FFF7F7FF18
:1001C00001F0F6F800F0ABF903B4FFF7F2FF03BC5F
:1001D00001F070F80948804709480047FEE7FEE74C
:1001E000FEE7FEE7FEE7FEE7FEE7FEE7FEE7FEE7E7
:1001F00004480549054A064B7047000021100008D5
:100200003101000870050020700B002070070020ED
:1002100070070020704700000FB4044910B503AA0E
:10022000029800F03DF910BC5DF814FB2C00002092
:100230002DE9F0410646002410687529314616A5BF
:1002400010D0AFF30080002802DA404213A507E087
:1002500031688A0701D512A502E0490704D511A526
:10026000012401E0AFF3008000210A2206F12407F7
:1002700009E0B0FBF2FCB0FBF2F302FB1C003030F3
:1002800078541846491C0028F3D123462A463046A4
:10029000BDE8F04100F093B8000000002D00000020
:1002A0002B000000200000002DE9F0474FF0000A6D
:1002B00089460446C0F820A02046E1688847002807
:1002C00076D0252806D0D4E901219047206A401C29
:1002D0002062F1E7E168204600258847C4F81CA0A9
:1002E00006460027C4F818A02A2E09D0304600F090
:1002F000DAFF38B304EB8708303EC8F8186019E01D
:1003000059F8041B204604EB87029161E168884795
:10031000012F064618D1E069002820DA25F02005D3
:100320001DE0D8F8180000EB800006EB40003038E4
:10033000C8F818002046E1688847064600F0B3FF79
:100340000028EED1012F0AD02E2E08D12046E168D8
:1003500088477F1C0646022F45F02005C4DBA069B4
:10036000002803DA404245F00105A061E80701D00A
:1003700025F01005B6B1A6F14100192802D82036A3
:1003800045F400654A463146204625604D46FFF754
:1003900009FF58B1012806D0ED1D25F0070000F136
:1003A000080989E704E005F1040985E730468AE792
:1003B000206ABDE8F08770477047704770472DE9A5
:1003C000F0470D4699469246044600F1240801681C
:1003D000880604D5E06921F01001216000E00120C9
:1003E000A84201DD471B00E00027A1697A1902EB52
:1003F0000900081AA0612078C00602D42046AFF395
:100400000080002608E0D4E901211AF80600904790
:10041000206A401C761C20624E45F4DB2078C00622
:100420000AD52046AFF3008006E0D4E90121302050
:100430009047206A401C2062381EA7F10107F4DCB7
:1004400007E0D4E9012118F805009047206A401C14
:100450002062281EA5F10105F3DC2046AFF30080E1
:100460002078000602D50220BDE8F0870120FBE7D6
:1004700001694A1C02610878704700B58FB0CDE968
:1004800001310021059105497944CDE90310114658
:100490006846FFF709FF0FB000BD0000E5FFFFFF52
:1004A000074B70B50D467B44FFF7E7FF044628462F
:1004B00000F008F810B14FF0FF3070BD204670BD5D
:1004C000EB0E0000007B00F0800070470048704792
:1004D0000C0500207546FFF7F9FFAE46050069469A
:1004E000534620F00700854618B020B5FFF780FE80
:1004F000BDE820404FF000064FF000074FF0000825
:100500004FF0000B21F00701AC46ACE8C009ACE8A5
:10051000C009ACE8C009ACE8C0098D46704710B509
:100520000446AFF300802046BDE81040FFF74CBE04
:1005300000BFFEE770472DE9F04102460025002686
:10054000002000230024002791F803C00CF00F05C1
:1005500091F803C00CF0100CBCF1000F03D091F81F
:1005600002C04CEA050591F800C0BCF1000F31D083
:10057000146800202BE04FF0010C0CFA00F3B1F8E6
:1005800000C00CEA03069E4220D183004FF00F0CFE
:100590000CFA03F7BC4305FA03FC4CEA040491F897
:1005A00003C0BCF1280F06D14FF0010C0CFA00FC7F
:1005B000C2F814C00AE091F803C0BCF1480F05D19D
:1005C0004FF0010C0CFA00FCC2F810C0401C0828C7
:1005D000D1D31460B1F800C0BCF1FF0F34DD546812
:1005E00000202EE000F1080C4FF0010808FA0CF38F
:1005F000B1F800C00CEA03069E4221D183004FF0FF
:100600000F0C0CFA03F7BC4305FA03FC4CEA040494
:1006100091F803C0BCF1280F05D100F1080C08FACD
:100620000CF8C2F8148091F803C0BCF1480F07D150
:1006300000F1080C4FF0010808FA0CF8C2F810801D
:10064000401C0828CED35460BDE8F081F0B50A46BE
:10065000002300240021002500F00046B6F1004FE1
:1006600002D11D4EF16901E01B4E7168C0F30345D4
:1006700083B200F44016B6F5401F08D121F0706136
:10068000154E766826F07066134F7E6012E000F417
:100690008016B6F5801F06D1032606FA05F4A1439D
:1006A00041F0706106E0460D360103FA06F6B143EB
:1006B00041F0706122B1460D360103FA06F631436E
:1006C00000F00046B6F1004F02D1034EF16101E0A7
:1006D000014E7160F0BD00000000014041617047B3
:1006E0000161704710B500F039F80149086010BD8C
:1006F000380000202DE9F04100F030F8134908607F
:10070000084600681249096888421BD90F480068EA
:1007100010490860084600680D490968401A0D49EB
:1007200008600846006801F0FBF8804601F0CCF84C
:1007300006460022084B00F0EBFE044601F040F8AC
:100740000449086003480068BDE8F08134000020D7
:10075000380000203C00002000887B4070B501205C
:100760001949086000F0F0FD00201849C1F8800127
:10077000002400BF144800680028FBD1002513E0C6
:10078000012011497C310860640000F0DDFD00208B
:100790000E49C1F880010C48006800B1641C0120BA
:1007A00000F0D2FD681CC5B2182DE9DB0120064916
:1007B0007C31086084F4000400F0C6FD0020034989
:1007C000C1F88001204670BD048121420080214291
:1007D00000BFFEE708B50121082000F01BFB012047
:1007E000ADF8000010208DF8030003208DF8020002
:1007F00069460F48FFF79FFE0220ADF80000482031
:100800008DF8030069460A48FFF795FE0121084864
:10081000FFF766FFFFF766FF4FF47A7000F06EFD9A
:100820004FF47A7000F06AFDFFF75CFF08BD00002E
:10083000000C014008B50121142000F0EBFA012161
:100840001148FFF703FF4FF40040ADF800004820C7
:100850008DF8030069460D48FFF76DFE2020ADF8C6
:10086000000048208DF8030069460948FFF763FE41
:100870000120ADF8000028208DF8030069460348E8
:10088000FFF759FE08BD00000002300000080140DB
:100890000010014008B50121242000F0BBFA4FF4FC
:1008A0008070ADF8000010208DF8030003208DF853
:1008B000020069460948FFF73EFE4FF48071074881
:1008C000FFF70EFF0420ADF8000069460448FFF76B
:1008D00032FE04210248FFF703FF08BD0008014073
:1008E0000014014000BFFEE77047000070B5002112
:1008F00000230F22C47804B3154C246804F4E06488
:10090000C4F5E064210AC1F10403CA40447804FA42
:1009100003F184781440214309010E4C0678A15557
:10092000047804F01F050124AC4005786D11AD007A
:1009300005F1E025C5F8004109E0047804F01F0541
:100940000124AC40044D0678761145F8264070BD70
:100950000CED00E000E400E080E100E0024901432A
:10096000024A1160704700000000FA050CED00E03B
:1009700070B500240CE0002506E00020074901EBDB
:10098000C5010855681CC5B2802DF6DB601CC4B2D9
:10099000082CF0DB00F0DAF870BD00000C0100203C
:1009A000F0B5144600267F2801DC3F2900DDF0BDAC
:1009B0000B46CF1701EB5777FF10C7F10707FAB2C5
:1009C000CF1701EB5777FF10A1EBC707FDB2C5F1B9
:1009D00007070123BB40DEB24CB10A4B03EBC00357
:1009E0009B5C3343074F07EBC007BB5408E0054B44
:1009F00003EBC0039B5CB343024F07EBC007BB5440
:100A000000BFD4E70C01002008B50121102000F040
:100A100001FA42F20F00ADF8000010208DF803003B
:100A200003208DF8020069464748FFF784FD42F233
:100A30000F014548FFF754FE02214348FFF750FEDF
:100A4000642000F05BFC02213F48FFF747FEC8200E
:100A500000F054FC02213C48FFF742FEC82000F0A1
:100A60004DFC0021AE2000F099F90021084600F06D
:100A700095F90021102000F091F90021402000F0AC
:100A80008DF90021812000F089F90021CF2000F0AC
:100A900085F90021A12000F081F90021C02000F09B
:100AA0007DF90021A62000F079F90021A82000F0AE
:100AB00075F900213F2000F071F90021D32000F0EA
:100AC0006DF90021084600F069F90021D52000F0F9
:100AD00065F90021802000F061F90021D92000F0A3
:100AE0005DF90021F12000F059F90021DA2000F031
:100AF00055F90021122000F051F90021DB2000F00F
:100B00004DF90021402000F049F90021202000F09B
:100B100045F90021022000F041F900218D2000F06C
:100B20003DF90021142000F039F90021A42000F043
:100B300035F90021A62000F031F90021AF2000F0A6
:100B40002DF9FFF715FF08BD0010014070B5002416
:100B50001CE004F1B001C8B2002100F01FF900212F
:100B6000084600F01BF90021102000F017F90025BD
:100B700008E0084901EBC501085D012100F00EF90C
:100B8000681CC5B2802DF4DB601CC4B2082CE0DB0D
:100B900070BD00000C0100202DE9F84F80460F4683
:100BA00016461C46BA462046E31704EB5373DB1087
:100BB00021464FEAE47C04EB5C7C4FEAEC0CA4EBAE
:100BC000CC0CBCF1000F02D04FF0010C01E04FF053
:100BD000000C6344224604EBD27C4FEA6C0C03FB0E
:100BE0000CF303F0FF0BA6F12000C6B200254EE087
:100BF0000C2C07D106EB4600284901EB8000405D34
:100C0000009013E0102C05D1254800EB0610405D44
:100C100000900BE0182C07D106EBC600214901EB30
:100C20008000405D009001E0BDE8F88F4FF00009C2
:100C300027E0009800F0800028B1394640460A9A23
:100C4000FFF7AEFE09E00A9808B9012000E0002095
:100C5000024639464046FFF7A3FE00984006000EC4
:100C60000090781CC7B2A7EB0A00A04205D15746F6
:100C700008F1010000F0FF0806E009F1010000F0B2
:100C8000FF09B9F1080FD4DB00BF681CC5B25D4590
:100C9000AEDBFFF75BFF00BFC6E70000BC1A000831
:100CA000301F0008202500082DE9FF4F81B00746BE
:100CB00091461E460E9D4FF0000A002439E0301B7D
:100CC000401EC1B20A2000F0C7FBB9FBF0F00A21B8
:100CD000B0FBF1F201FB1208BAF1000F16D1701E41
:100CE000A04213DDB8F1000F0ED10120AB4605EB99
:100CF000DB71491001FB04710090C8B22B46202221
:100D00000299FFF749FF12E04FF0010A0120AB46BC
:100D100005EBDB71491001FB04710090C8B208F1CA
:100D20003001CAB22B460299FFF736FF00BF601CA4
:100D3000C4B2B442C3DB05B0BDE8F08FF8B50646D7
:100D40000F4615461C4621E004EBD4714910C1F151
:100D50008001B14202DA00263819C7B2C4F140005E
:100D6000B84204DA002006460746FFF701FE0120DC
:100D700000902A78234639463046FFF70DFF20467B
:100D800004EBD07106EB6101CEB26D1C28787E2891
:100D900002DC28782028D7DAF8BD000070B50446B8
:100DA0000E4626B104211948FFF79AFC03E00421FE
:100DB0001648FFF793FC08211448FFF78FFC002525
:100DC00019E04FF400511148FFF788FC04F080004F
:100DD00020B101210D48FFF783FC03E001210B48FE
:100DE000FFF77CFC4FF400510848FFF779FC6006E0
:100DF000040E681CC5B2082DE3DB08210348FFF789
:100E00006FFC04210148FFF76BFC70BD001001402E
:100E10007047000029B1064A92690243044B9A6167
:100E200004E0034A92698243014B9A6170470000D3
:100E30000010024030B500210022002400232D4D77
:100E40006D6805F00C0121B1042905D0082923D1D2
:100E500005E0294D056022E0274D05601FE0254D86
:100E60006D6805F47012234D6D6805F48034022519
:100E700005EB92421CB9214D554305600BE01D4D19
:100E80006D6805F400351DB11C4D5543056002E049
:100E9000194D5543056002E0174D056000BF00BFC6
:100EA000144D6D6805F0F0010909154D6B5C05687E
:100EB000DD4045600F4D6D6805F4E061090A104D95
:100EC0006B5C4568DD4085600A4D6D6805F46051D6
:100ED000C90A0B4D6B5C4568DD40C560054D6D680A
:100EE00005F44041890B074D6B5CC568B5FBF3F514
:100EF000056130BD0010024000127A0000093D007B
:100F00001400002024000020704710B500F002F803
:100F100010BD00000CB5002001900090334800681F
:100F200040F480303149086000BF3048006800F468
:100F3000003000900198401C0190009818B9019869
:100F4000B0F5A06FF1D12948006800F4003010B16D
:100F50000120009001E0002000900098012843D17A
:100F60002348006840F010002149086008460068E6
:100F700020F0030008600846006840F002000860A6
:100F80001A48406819494860084640684860084661
:100F9000406840F4806048600846406820F47C1057
:100FA00048600846406840F4E81048600846006819
:100FB00040F08070086000BF0C48006800F00070CE
:100FC0000028F9D00948406820F00300074948602C
:100FD0000846406840F00200486000BF034840688F
:100FE00000F00C000828F9D10CBD000000100240F0
:100FF00000200240042808D14FF0E021096941F0A7
:1010000004014FF0E022116107E04FF0E02109698F
:1010100021F004014FF0E022116170477047000099
:1010200010B51348006840F00100114908600846F7
:101030004068104908400E494860084600680E495B
:1010400008400B4908600846006820F480200860CA
:101050000846406820F4FE0048604FF41F00886096
:10106000FFF753FF4FF000600449086010BD000017
:10107000001002400000FFF8FFFFF6FE08ED00E060
:1010800010B540F225511D4800F04AF810B31B4836
:1010900000F002F9C4B21A48008800F40040C8B950
:1010A0001748008800F4804060B10A2C03D000206B
:1010B0001349088020E01248008840F4004010499D
:1010C000088019E00D2C06D10D48008840F48040BE
:1010D0000B49088010E00A480088C0F30D00094958
:1010E0000C5407480088401C0549088008460088C1
:1010F000C72801DD0020088010BD00000038014035
:10110000300000204400002021B1828942F40052C6
:10111000828104E082894DF6FF731A408281704714
:1011200070B50246002400230025002040F66A1610
:10113000B14200D100BFC1F3421501F01F030126E7
:1011400006FA03F3012D02D19689334006E0022D01
:1011500002D1168A334001E0968A33400C120126F0
:1011600006FA04F41688344013B10CB1012000E0F3
:10117000002070BDF0B503460024002600250020A5
:1011800040F66A17B94200D100BF1846C1F34214B5
:1011900001F01F06012707FA06F5012C01D10C30DA
:1011A00004E0022C01D1103000E014301AB10768BD
:1011B0002F43076002E00768AF430760F0BD0000FF
:1011C0002DE9F04786B005460E460024A24600BF32
:1011D000A1460027B08900B100BF2F462C8A4CF6EB
:1011E000FF700440F08804432C82AC894EF6F31063
:1011F0000440B08831890843718908430443AC81B5
:10120000AC8A4FF6FF400440B0890443AC8201A889
:10121000FFF710FE1F48874202D1DDF810A001E061
:10122000DDF80CA0A88900F4004040B10AEBCA0028
:1012300000EB0A1031684900B0FBF1F807E00AEB57
:10124000CA0000EB0A1031688900B0FBF1F8642095
:10125000B8FBF0F004012009642101FB1089A88982
:1012600000F4004040B1322000EBC900B0FBF1F0C7
:1012700000F00700044308E0322000EB091064216D
:10128000B0FBF1F000F00F0004432C8106B0BDE884
:10129000F08700000038014001468888C0F308004C
:1012A000704700BFFEE730380A2801D2012070479E
:1012B0000020704700BF704710B56FF00400FFF7C3
:1012C00099FE0A4800680A49B0FBF1F00949087024
:1012D0000846007800EB4001C1EBC0104FF6FF71EB
:1012E00001EAC0000449088010BD00000000002091
:1012F00000127A00280000202A0000200146114A2E
:1013000012884A434FF0E0235A6100229A611A463C
:10131000126942F001021A6100BF4FF0E022106929
:1013200000F001021AB100F48032002AF5D04FF02B
:10133000E022126922F001024FF0E0231A6100223C
:101340009A6170472A0000200146114A12784A43E8
:101350004FF0E0235A6100229A611A46126942F066
:1013600001021A6100BF4FF0E022106900F0010293
:101370001AB100F48032002AF5D04FF0E022126951
:1013800022F001024FF0E0231A6100229A617047B7
:101390002800002000BF054A128802F04002002AFF
:1013A000F9D0C2B2014B1B1D1A80704700380140B2
:1013B00008B5002400254FF4A060FFF7CFFAFFF72F
:1013C0007BFF4FF4E13000F053F819A0FEF724FF43
:1013D000FFF760FAFFF72EFAFFF7FCF9FFF714FBAF
:1013E000102317A20A210846FFF7A8FC1FE0FFF709
:1013F00081F90446601B002801DB014600E0414200
:10140000022903DA052C0EDA002C0CDD102004234F
:1014100022460A2100904C20FFF746FC21460CA0F2
:10142000FEF7FAFE25464FF47A70FFF767FFDEE716
:10143000555341525420544553540D0A00000000A6
:101440005765696768743D202020202020670000D0
:10145000256420670D0A000010B50246012000E057
:1014600050430B1EA1F10104E1B2F9D110BD0000FF
:1014700010B586B00446012144F20400FFF7CAFC0F
:101480004FF40070ADF8140003208DF816001820FA
:101490008DF8170005A91C48FFF74DF84FF4806040
:1014A000ADF8140004208DF8170005A91648FFF7C1
:1014B00042F825208DF8000003208DF801008DF8FA
:1014C000020001208DF803006846FFF70FFA01942F
:1014D0000020ADF80800ADF80A00ADF80C00ADF83A
:1014E00010000C20ADF80E0001A90848FFF768FEB7
:1014F000012240F225510548FFF73CFE0121034837
:10150000FFF702FE06B010BD0008014000380140A0
:101510002DE9C04130B4DFF8A0C23CEA111418BF75
:101520003CEA131400F0EC8081EA03051CEA111474
:1015300044EAD57418BF1CEA131500F0C780A4EB69
:1015400005044FF0004545EAC12145EAC32341EABD
:10155000505143EA525304F17F74994204F5003428
:101560004FEAC0204FEAC22208BF904200F09C80A0
:101570004FEA13650FF24016765D4FEA134506FBFE
:1015800005F7C7F1807706FB07F74FEAD737A7FBC8
:1015900003687642C8F58038A7FB06CE38BFA8F1AD
:1015A000010807FB08E64FF0000EA6FB028CE6FBE5
:1015B00003CEDCF1000CCEF1004E38BFAEF1010ECF
:1015C000A6FB0C584FF000074FF00005E6FB0E8716
:1015D000A1FB08C6A0FB07CE16EB0E0645F10005E1
:1015E000E1FB076515F1E04E7EBFA4F580345FEAAC
:1015F00046066D4116F1800745F100054FEA1727B1
:101600004FEA066647EA0567A6F1DE46B6F1805F57
:101610004FEA15251FD9384624F0010C05EBC4719B
:10162000BCF1FE6F01EB0C1102D8F0BCBDE80081EB
:1016300024425CBF01F5801E9EEAC47F02D4F0BC48
:10164000BDE80081244238D4F0BCA1F1C041BDE81E
:10165000004100F032B94FEAD22242EA43524FEA47
:10166000D323A7FB02864FEAD02040EA415007FB74
:1016700003661EEA0E0F4FEAD12105FB026658BF32
:10168000A6EB0056B6EB00564FEA520E4EEAC37E6A
:1016900018EB0E0E56EB530EBDD518EB02085E414B
:1016A0007F1C55F10005B6E74FF480154FF0000799
:1016B0004FF000064FF00008ADE7F0BC4FF000001F
:1016C00001F1C04101F00041BDE8008111EA0C1FA9
:1016D0000CEA131500D00CE013EA0C1F00F0258073
:1016E0004FF00000F0BC81EA030101F00041BDE8C9
:1016F0000081F0BCBDE8004181EA030100F0DDB8E3
:10170000F0BCBDE8004170B500F089F8097EFC3EF0
:1017100000F007B881EA03014FF0000001F000413A
:10172000704781EA030100F0C8B8F0BCBDE8004191
:101730004FF0000021497047FFFDFBF9F7F5F4F287
:10174000F0EEEDEBE9E8E6E4E3E1E0DEDDDBDAD85C
:10175000D7D5D4D3D1D0CFCDCCCBCAC8C7C6C5C4BA
:10176000C2C1C0BFBEBDBCBBBAB9B8B7B6B5B4B3D1
:10177000B2B1B0AFAEADACABAAA9A8A8A7A6A5A4BC
:10178000A3A3A2A1A09F9F9E9D9C9C9B9A99999880
:101790009797969595949393929191908F8F8E8E23
:1017A0008D8C8C8B8B8A89898888878786858584B0
:1017B00084838382828181800000FF070000F87F9C
:1017C0004FEA41034FEA5353A3F58063D3F11E035D
:1017D000C8BFD3F1210C0CDD4FF0004242EAC12218
:1017E00042EA505232FA03FC8CEAE17CACEBE17045
:1017F0007047102BC4BF0020704703F5787CBCF104
:10180000FF3F04D06FF0004282EA2100704770B5BC
:1018100000F005F84992248000207047F2E70EF1AD
:10182000020E2EF0030E5EF8046B364205D4012A38
:1018300043EB030515F5001F12D8012841EB010CFD
:101840001CF5001F0CD80ED14FEAD17C15F5001FF6
:101850000CEB4C0C0CF1020C08BF4CEBD37C04E0FD
:101860004FF0080C01E04FEAD37C0CEB4C0526FA54
:1018700005F606F00706B6F1040C06D20EEB860C50
:10188000BDE870404CF0010C6047DFE80CF0090B3C
:1018900002024FF000414FF00000A1F5002170BDA1
:1018A00019461046012851EB010418BFD4F5001465
:1018B00084BF002001F0004170BD0808A0F50011B0
:1018C0004FEA31017047000043004FEAD30C4FEA62
:1018D0003C0C43401FBF40070CF1605113F0FE4F1A
:1018E00070471CF0006F03D100200CF000417047DE
:1018F0000CF0004343EA507010B540EACC0000F011
:1019000027F800BF000000924FEA0001FFF7D5BFA3
:101910004FF000414FF00000A1F50021704700009A
:1019200010F0004148BF4042B0FA80F310FA03F2D1
:10193000C3F19D030BD051EAC35101EB12205306B2
:1019400038BF704700F1010008BF20F00100704768
:101950000EF1020E2EF0030E5EF8044B244204D466
:101960004FEA4102B2F17F4F11D84FEA4003B3F181
:101970007F4F0CD80ED14FEAD07CB2F17F4F0CEBE9
:101980004C0C0CF1020C08BF4CEBD17C04E04FF086
:10199000080C01E04FEAD17C0CEB4C0324FA03F471
:1019A00004F00704B4F1040C06D20EEB840CBDE87D
:1019B00010404CF0010C6047DFE80CF00708020211
:1019C0004FF00040A0F5800010BD0846420018BF4F
:1019D000D2F1807288BF00F0004010BD00024002CA
:1019E000410241024102410241027FFE41024102A5
:1019F000410241024102400200020000082008C0EA
:101A00000B00FFFF090008C0020022202A20A620A8
:101A100063FF26202A202220020000000100060089
:101A20001FFFE0001840505F55505550505E7F70CA
:101A3000505E55505551505F1840000002000200A2
:101A4000220022FF2A922692A2926292229226924B
:101A50002A9222FF2200020002000000000000047F
:101A6000070839102160210221012FFE41004100A9
:101A7000C14041200110010C0000000002093E712C
:101A80000202FEF21204127802014FF248045818C2
:101A90006BE0480848044FF2400100000200420099
:101AA00033FE000402082A00A6FF62923E922292B0
:101AB0003E926292A6FF2A00020000000000000091
:101AC0000000000000000000000000003F40000097
:101AD0000000000000003000400030004000000026
:101AE00009000BC03D000BC03D00090018C0244098
:101AF0007FE0224031800000180024C01B000D80D0
:101B00003240018003801C4027401C800740004079
:101B10001000600000000000000000000000000055
:101B200000001F80204040200000402020401F80F7
:101B300000000000090006001F80060009000000E8
:101B4000040004003F800400040000000010006056
:101B50000000000000000000040004000400040075
:101B60000400000000000040000000000000000031
:101B7000002001C006003800400000001F80204007
:101B8000204020401F800000000010403FC0004067
:101B90000000000018C021402240244018400000EE
:101BA00010802040244024401B80000002000D00D3
:101BB00011003FC0014000003C80244024402440EC
:101BC000238000001F802440244034400380000014
:101BD0003000200027C03800200000001B80244077
:101BE000244024401B8000001C0022C022402240D0
:101BF0001F800000000000000840000000000000FE
:101C0000000000000460000000000000000004006C
:101C10000A00110020804040090009000900090065
:101C20000900000000004040208011000A0004006C
:101C30001800200023402400180000001F802040CE
:101C4000274029401F400000004007C039000F0016
:101C500001C0004020403FC0244024401B800000C1
:101C60001F802040204020403080000020403FC0A6
:101C7000204020401F80000020403FC024402E40D4
:101C800030C0000020403FC024402E003000000043
:101C90000F001080204022403380020020403FC0CF
:101CA000040004003FC02040204020403FC02040AE
:101CB000204000000060202020203FC020002000A5
:101CC00020403FC024400B0030C0204020403FC097
:101CD00020400040004000C03FC03C0003C03C002A
:101CE0003FC0000020403FC00C4023003FC0200008
:101CF0001F802040204020401F80000020403FC027
:101D000024402400180000001F802140214020E0D2
:101D10001FA0000020403FC02440260019C0004002
:101D200018C0244024402240318000003000204070
:101D30003FC020403000000020003F8000400040B5
:101D40003F80200020003E0001C007003800200036
:101D5000380007C03C0007C038000000204039C0F0
:101D6000060039C0204000002000384007C038403D
:101D700020000000304021C02640384020C0000034
:101D8000000000007FE040204020000000007000C4
:101D90000C000380004000000000402040207FE055
:101DA00000000000000020004000200000000000B3
:101DB00000100010001000100010001000000000C3
:101DC00040000000000000000000028005400540C7
:101DD00003C0004020003FC00440044003800000D6
:101DE000000003800440044006400000000003801F
:101DF000044024403FC000400000038005400540EF
:101E000003400000000004401FC024402440200084
:101E1000000002E0055005500650042020403FC05D
:101E20000440040003C000400000044027C00040FC
:101E30000000000000100010041027E00000000067
:101E400020403FC00140070004C004402040204023
:101E50003FC000400040000007C0040007C004006D
:101E600003C00000044007C00440040003C0004059
:101E7000000003800440044003800000041007F0C9
:101E8000045004400380000000000380044004501C
:101E900007F00010044007C00240040004000000E6
:101EA000000006400540054004C00000000004009A
:101EB0001F800440004000000400078000400440F0
:101EC00007C000400400070004C0018006000400B1
:101ED000060001C0070001C006000000044006C063
:101EE000010006C0044000000410071004E0018057
:101EF000060004000000044005C006400440000045
:101F00000000000004007BE0402000000000000012
:101F10000000FFF000000000000040207BE0040013
:101F20000000000040008000400020002000400031
:101F300000000000000000000000000000000000A1
:101F40000000000000001FCC000C0000000000009A
:101F50000000080030006000080030006000000051
:101F6000022003FC1E20022003FC1E200220000091
:101F700000000E1811043FFF10840C7800000000D0
:101F80000F0010840F3800C0077818840078000014
:101F900000780F8410C411240E9800E40084000817
:101FA0000800680070000000000000000000000051
:101FB00000000000000007E01818200440020000A4
:101FC000000040022004181807E000000000000094
:101FD0000240024001800FF00180024002400000F8
:101FE0000080008000800FF80080008000800000EA
:101FF0000001000D000E00000000000000000000C5
:102000000000008000800080008000800080008050
:102010000000000C000C00000000000000000000A8
:102020000000000600180060018006001800200073
:10203000000007F0080810041004080807F000006A
:102040000000080408041FFC000400040000000055
:1020500000000E0C10141024104411840E0C00000B
:1020600000000C1810041104110412880C700000F8
:10207000000000E00320042408241FFC00240000CA
:1020800000001F98108411041104108810700000C3
:10209000000007F00888110411041888007000007F
:1020A00000001C00100010FC13001C0010000000B9
:1020B00000000E3811441084108411440E380000C2
:1020C00000000700088C10441044088807F0000046
:1020D000000000000000030C030C000000000000E2
:1020E00000000000000101060000000000000000E8
:1020F00000000080014002200410080810040000C5
:1021000002200220022002200220022002200000E1
:1021100000001004080804100220014000800000A4
:1021200000000E001200100C106C10800F00000058
:1021300003E00C1813E4142417C4082807D0000087
:102140000004003C03C41C40074000E4001C0004E1
:1021500010041FFC1104110411040E88007000000B
:1021600003E00C1810041004100410081C100000E8
:1021700010041FFC100410041004080807F00000ED
:1021800010041FFC1104110417C4100408180000E7
:1021900010041FFC1104110017C0100008000000FB
:1021A00003E00C181004100410441C7800400000D8
:1021B00010041FFC10840080008010841FFC100499
:1021C0000000100410041FFC1004100400000000A4
:1021D00000030001100110011FFE1000100000009C
:1021E00010041FFC110403801464181C1004000068
:1021F00010041FFC1004000400040004000C000084
:1022000010041FFC1F0000FC1F001FFC1004000036
:1022100010041FFC0C04030000E010181FFC100049
:1022200007F00808100410041004080807F0000064
:1022300010041FFC10841080108010800F0000001C
:1022400007F0081810241024101C080A07F20000D8
:1022500010041FFC1104110011C011300E0C0004F9
:1022600000000E1C11041084108410441C3800005F
:102270001800100010041FFC1004100018000000CB
:1022800010001FF810040004000410041FF81000D0
:1022900010001E0011E0001C007013801C001000D4
:1022A0001FC0103C00E01F0000E0103C1FC00000F9
:1022B0001004180C163401C001C01634180C100498
:1022C00010001C00130400FC13041C00100000008C
:1022D0000804101C1064108413041C04101800005F
:1022E0000000000000007FFE4002400240020000AB
:1022F000000030000C0003800060001C00030000A0
:1023000000004002400240027FFE0000000000008A
:1023100000000000200040004000400020000000BD
:1023200000010001000100010001000100010001A5
:1023300000004000400020000000000000000000FD
:1023400000000098012401440144014400FC000401
:1023500010001FFC008801040104008800700000C8
:1023600000000070008801040104010400880000DE
:102370000000007000880104010411081FFC000423
:10238000000000F8014401440144014400C8000079
:102390000000010401040FFC1104110411001800D5
:1023A000000000D601290129012901C90106000008
:1023B00010041FFC008401000100010400FC000463
:1023C00000000104190419FC0004000400000000CE
:1023D0000000000300010101190119FE00000000C6
:1023E00010041FFC0024004001B4010C0104000093
:1023F0000000100410041FFC000400040000000092
:10240000010401FC0104010001FC0104010000FCC5
:10241000010401FC008401000100010400FC00042F
:10242000000000F8010401040104010400F80000A8
:10243000010101FF00850104010400880070000013
:1024400000000070008801040104010501FF000183
:102450000104010401FC008401040100018000006A
:10246000000000CC01240124012401240198000073
:1024700000000100010007F8010401040000000051
:10248000010001F8000400040004010801FC00043C
:10249000010001800170000C00100160018001004A
:1024A00001F0010C003001C00030010C01F001000E
:1024B00000000104018C00740170018C0104000013
:1024C000010101810171000E00180160018001000D
:1024D00000000184010C013401440184010C00005E
:1024E000000000000000000001003EFC400240022D
:1024F0000000000000000000FFFF000000000000DE
:102500000000400240023EFC01000000000000000C
:10251000000060008000800040004000200020009B
:1025200000000000000000000000000000000000AB
:10253000000000000000000000000000000000009B
:10254000000000000000000000000000000000008B
:102550000000000F80380FFE380F803800000000A8
:10256000000000000000000000000000000001006A
:10257000000600000C0000380000310000060000DA
:102580000C000038000030000000000000000000D7
:1025900061800067F807F980006180006180006158
:1025A000800061800067F807F9800061800000000A
:1025B00000000000000001C0E003E0F00630080465
:1025C00018081FFFFE040E080787F00381E00000D3
:1025D0000000000001F000060C00040408060C7066
:1025E00001F9C0000E00003BE000EC1807080804E9
:1025F0000C180003E00000000001E00007F003F801
:1026000018041C0804170807E1D003C0E00023B039
:10261000003C08002008000010000000000000013D
:1026200000003100003200001C000000000000002B
:10263000000000000000000000000000000000009A
:10264000000000000000000000000000000000008A
:102650007F0001FFC00780F00C001810000420006C
:10266000020000000000002000021000040C00180E
:102670000780F001FFC0007F0000000000000000A4
:1026800000000000000000000000000042000066A2
:1026900000006600003C0000180003FFC0001800A6
:1026A000003C0000660000660000420000000000E0
:1026B000080000080000080000080000080001FFF2
:1026C000C000080000080000080000080000080022
:1026D00000000000000100003100003200001C007A
:1026E00000000000000000000000000000000000EA
:1026F00000000000000000000800000800000800C2
:1027000000080000080000080000080000080000A1
:1027100008000008000000000000000000000000A9
:102720003800003800003800000000000000000001
:102730000000000000000000000000000000000099
:10274000000600001C000070000180000E00003830
:102750000000C0000700001C000030000000000066
:10276000000000007F8001FFE00380700600180475
:10277000000804000806001803807001FFE0007FD5
:1027800080000000000000000000010008010008B7
:1027900001000803FFF807FFF80000080000080028
:1027A000000800000000000000000001C03802C066
:1027B00058040098040118040218040418061C1890
:1027C00003F81801E0F8000000000000000000011C
:1027D000C0E003C0F0040008040808040808061854
:1027E0000803F41801E7F00001E000000000000019
:1027F000000000000300000D000011000061000057
:10280000810803010807FFF80FFFF8000108000125
:10281000080000000000000000E007FCD0060808E7
:10282000061008061008061008061838060FF006ED
:1028300007C0000000000000000000003F8001FF12
:10284000E00384300208180410080410080410087B
:10285000071810030FF00007C00000000000000080
:10286000000003C0000700000600000600F806078D
:10287000F806180006E0000700000600000000004F
:1028800000000001E1E003F7F0063410041808042A
:102890001808040C08040C0806161803F3F001C10C
:1028A000E000000000000000F80003FC30030638E0
:1028B0000402080402080402080404100308F001DA
:1028C000FFC0007F000000000000000000000000CA
:1028D0000000000000000000703800703800703800
:1028E00000000000000000000000000000000000E8
:1028F000000000000000000000000000301A00305E
:102900001C000000000000000000000000000000AB
:102910000000000000000008000014000022000079
:1029200041000080800100400200200400100800E7
:10293000080000000000000021000021000021002C
:1029400000210000210000210000210000210000E2
:10295000210000210000000000000000000008002D
:1029600008040010020020010040008080004100A7
:102970000022000014000008000000000000000316
:10298000C00004C000040000080038080F38080820
:10299000380810000C300007E00003C00000000001
:1029A000000000003F8000FFE0038070020F10066F
:1029B000708804C088048308047F8802C0900301E3
:1029C0002000FE400000080000180001F8003E084A
:1029D00001C20007020007E20000FE00001FC8005D
:1029E00001F800003800000804000807FFF807FF9E
:1029F000F804080804080804080804080806180869
:102A000003F41801E7F00001E000000000000000FE
:102A10003F8001FFE00380700200180400080400FA
:102A2000080400080400100600200780C000000011
:102A300004000807FFF807FFF80400080400080472
:102A4000000804001802001003807001FFE0007FFE
:102A50008000000004000807FFF807FFF8040808DA
:102A6000040808040808040808043E0804000806CE
:102A7000001801006000000004000807FFF807FFCD
:102A8000F8040808040800040800040800043E00D4
:102A900006000006000001800000000000000000A9
:102AA0003F8001FFE0038070060018040008040264
:102AB000080402080203F00783F00002000002008D
:102AC00004000807FFF807FFF804080800080000E2
:102AD000080000080000080004080807FFF807FFC6
:102AE000F8040008000000000000040008040008CA
:102AF00004000807FFF807FFF804000804000804B2
:102B000000080000000000000000000000060000B7
:102B10000700000104000104000104000307FFFE98
:102B200007FFFC0400000400000400000400080784
:102B3000FFF807FFF8040C08001800003E0004C767
:102B4000800503C80600F8040038040018000008D7
:102B500004000807FFF807FFF80400080000080059
:102B6000000800000800000800000800001800002D
:102B70006000000004000807FFF807800807FC0059
:102B8000007FC00003F80007C00078000780080736
:102B9000FFF807FFF804000804000807FFF8070023
:102BA0000803C00000E000003800001E000007001D
:102BB0000001C00400F007FFF8040000000000005E
:102BC0007F8001FFE0038070060018040008040005
:102BD0000806001803003001FFE0007F80000000BD
:102BE00004000807FFF807FFF804040804040004C1
:102BF0000400040400040400060C0003F80001F0C3
:102C000000000000000000007F8001FFE0038070F2
:102C10000600880400880400C806003C03003E014A
:102C2000FFE6007F8400000004000807FFF807FFAC
:102C3000F8040808040800040C00040F00040BC08A
:102C40000610F003F03801E0080000080000000161
:102C5000E0F803F030063010041808041808040CDB
:102C600008040C080206180207F00781E0000000C3
:102C700001800006000004000004000004000807B2
:102C8000FFF807FFF8040008040000040000060035
:102C90000001800004000007FFE007FFF0040018B7
:102CA00000000800000800000800000800000804F8
:102CB000001007FFE004000004000006000007E029
:102CC0000007FE00041FE00001F80000380001E0EA
:102CD000043E0007C00006000004000004000007D6
:102CE000E00007FFC0041FF80007C007F80007FF57
:102CF00080043FF80007C004F8000700000400004B
:102D000000000004000806001807C07805F1C8009C
:102D10003E00001F800463E80780F80600180400E6
:102D20000800000004000006000007800007E0081B
:102D3000047C08001FF80007F800180804E00807E2
:102D4000000006000004000000000001000806006A
:102D5000380400F80403E8040F08047C0805F008B0
:102D600007C0080700180400600000000000000011
:102D700000000000000000000000003FFFFE2000F7
:102D800002200002200002200002200002000000B9
:102D900000000000000008000007000000C0000064
:102DA00038000006000001C000003000000E0000E6
:102DB00001000000000000000000200002200002CE
:102DC0002000022000022000023FFFFE0000000061
:102DD00000000000000000000000000000000000F3
:102DE000000800001000003000002000003000004B
:102DF00010000008000000000000000000000100BA
:102E000000010000010000010000010000010000BD
:102E100001000001000001000001000001000001AC
:102E20000000000000000000002000002000001052
:102E30000000100000000000000000000000000082
:102E4000000000000000000000F00019F8001B184E
:102E5000002208002608002408002410003FF80083
:102E60001FF800000800001800000004000007FF21
:102E7000F80FFFF0001818001008002008002008C4
:102E8000003018001FF0000FC0000000000000001C
:102E900007C0001FF00018300020080020080020A4
:102EA00008003C08001C100000600000000000004A
:102EB0000000000007C0001FF000381800200800C4
:102EC000200800200804101007FFF80FFFF0000092
:102ED000100000000000000000000007C0001FF00C
:102EE00000123000221800220800220800320800D8
:102EF0001E10000E20000000000000002000002036
:102F00000800200801FFF803FFF806200804200845
:102F1000042008072000030000000000000000005B
:102F2000000E000E6E001FF30031B10020B1002032
:102F3000B1003191001F13002E1E00200E00300042
:102F400000000004000807FFF80FFFF80010080059
:102F50002000002000002008003FF8001FF80000BB
:102F60000800000000000000000000200800200809
:102F7000002008063FF8063FF8000008000008009F
:102F80000008000000000000000000000000000039
:102F900003000003002001002001002003063FFE83
:102FA000063FFC00000000000000000000000004DC
:102FB000000807FFF80FFFF8000188000300002F4A
:102FC000C00038F800203800200800000800000089
:102FD00000000000000004000804000804000807C6
:102FE000FFF80FFFF80000080000080000080000CC
:102FF00000000000002008003FF8003FF800100823
:10300000002000003FF8003FF800100800200000FA
:103010003FF8003FF8000008000000002008003FD3
:10302000F8003FF800100800100000200000200801
:10303000003FF8001FF8000008000000000000003A
:1030400007C0000FF00018300030080020080020F2
:1030500008003008001830000FF00007C000000022
:10306000000000002001003FFF003FFF00101100A2
:103070002009002008002008003038001FF0000F51
:10308000C00000000000000007C0001FF00038185A
:10309000002008002008002009001011001FFF0078
:1030A0003FFF000001000000002008002008002071
:1030B00008003FF8003FF80008080010080020084A
:1030C0000020000030000030000000000000000080
:1030D0000000000C78001E180033080023080021AF
:1030E000080021880021980030F0003860000000BE
:1030F00000000000200000200000200000FFF0037E
:10310000FFF8002008002008002008000030000020
:1031100000000000000000002000003FF0007FF8E9
:10312000000018000008000008002010003FF80010
:103130007FF00000100000000000000020000030C0
:1031400000003C00003F800023F000007800007089
:10315000002380003C000030000020000020000020
:103160003C00003FE00023F80000E0002700003EA4
:1031700000003FE00021F80001E0003E00002000D8
:10318000000000002008002008003838003E6800D9
:1031900027800003C8002CF80038380020180020D1
:1031A00008000000000000002000003003003C0187
:1031B000003F830023EC000070002380003C0000EF
:1031C0002000002000000000000000000000003887
:1031D000080020380020F80023E8002F88003E086F
:1031E00000380800201800007000000000000000F7
:1031F00000000000000000000000000008000014B3
:10320000001FF7FC30000620000200000000000054
:1032100000000000000000000000000000000000AE
:103220000000FFFFFF0000000000000000000000A1
:103230000000000000000000000020000230000636
:103240001FF7FC0014000008000000000000000050
:1032500000000000000000000000001800006000F6
:1032600000400000400000200000100000080000A6
:103270000400000400000C00001000009C32000854
:1032800000000020440000006C010008E03200084B
:10329000440000202C0B00008801000800A24A0412
:1032A00000000000000000000102030406070809F6
:1032B00000000000010203040102030406070809DC
:1032C00002040608000000000000000000000000EA
:1032D00000000000000000000000000000000000EE
:0400000508000131BD
:00000001FF
